:100000002FC049C048C047C046C045C044C043C0D7
:1000100042C041C040C03FC03EC03DC03CC03BC0EC
:100020003AC039C038C015CA14CA13CA12CA11CA94
:1000300010CA0FCA0ECA0DCA0CCA0BCA0ACA24CAF1
:1000400023CA22CA21CA20CA1FCA1ECA1DCA77C90A
:1000500084C98BC992C9ABC9B6C9BCC9D7C9E6C9DD
:1000600011241FBECFE5D4E0DEBFCDBF10E0A0E677
:10007000B0E0E6E1F7E102C005900D92A83AB107C1
:10008000D9F711E0A8EAB0E001C01D92AF32B10784
:10009000E1F761D03ECBB4CF982F8091A8008823A0
:1000A00021F49F5F9093A800915080912A01809144
:1000B0002A01E82FFF27E7FDF095E655FF4F9083D3
:1000C0008F5F80932A018091A80081508093A800BF
:1000D000882319F481E08093A9000895539A089524
:1000E0005398089510BC87E689B98EE880BD80E1F9
:1000F0008AB9599A8CB108955D9BFECF8CB98A302C
:1001000011F48DE0F9DF5D9BFECF08955F9BFECF7C
:100110008CB108950F931F93CF93DF938C01C0E0B0
:10012000D0E006C0F801EC0FFD1F8081E5DF2196CD
:10013000F80101900020E9F73197E01BF10BCE1791
:10014000DF0780F38AE0D8DF8DE0D6DFDF91CF9143
:100150001F910F910895AF92BF92CF92DF92EF92CD
:10016000FF920F931F93CF93DF9314BA87E085BB61
:1001700080E881BB8D9AD3B287E0D822B3DF10929A
:100180002A011092A90080E690E061E070E04CE462
:1001900050E0F2D15C018CE690E061E070E04CE46C
:1001A00050E0EAD1EC0188E790E0B501F8D387E8A8
:1001B00090E0BE01F4D380E060E070E040E050E009
:1001C00020E08501D5D380E060E070E040E050E0C1
:1001D00020E08E01CDD380E090E064E970E040E063
:1001E00050E021E000E07501E6D280E090E064E9B3
:1001F00070E040E050E021E07E01DDD2CD2CDD2436
:100200005F9BFECFFCB0FF2009F047C05F9BFECF95
:100210008CB1992787FD90958C159D0509F059C0E3
:10022000539A8091A9008823A1F1F090AA00F39439
:1002300000E010E007C0F801E655FF4F80815CDF69
:100240000F5F1F4F0F15BCF39F2D20E030E04F2DA7
:10025000552747FD50950DC0F901E40FF51FE655F0
:10026000FF4F8081F901E655FF4F80839F5F2F5F2D
:100270003F4F80912A0198177CF380912A018F19B2
:1002800080932A0180912A01882329F41092A900E1
:1002900002C080E031DF53981CC08F2DB501E9D733
:1002A0008F2DBE01E6D700E012C05F9BFECF1CB1D0
:1002B000812FB501DED7812FBE01DBD7C50133D138
:1002C000892B39F4CE012FD1892B19F40F5F0F152B
:1002D00064F380E090E0B5011CD0882349F080E011
:1002E00090E0B50142D0882311F0959A01C095980D
:1002F00080E090E0BE010DD0882309F481CF80E03A
:1003000090E0BE0132D0882311F0979A79CF979868
:1003100077CFCF93DF93EC01FB01E65AFF4F61915A
:10032000719140E050E020E030E018C0A081B18140
:10033000A20FB31F235F3F4F12968C91129790E04C
:100340008C179D0749F417968C911797882349F0CD
:1003500017961C9281E006C04F5F5F4F4617570704
:1003600028F380E0DF91CF910895CF93DF93EC01E4
:10037000FB01E65AFF4F6191719140E050E020E0AF
:1003800030E015C0A081B181A20FB31F235F3F4FA2
:1003900012968C91129790E08C179D0731F41B9662
:1003A000ED91FC911C97808106C04F5F5F4F46170F
:1003B000570740F380E0DF91CF910895CF93DF930B
:1003C000EC01FB01E65AFF4F6191719140E050E072
:1003D00020E030E017C0A081B181A20FB31F235FDE
:1003E0003F4F12968C91129790E08C179D0741F425
:1003F0001B96ED91FC911C970190F081E02D07C0B8
:100400004F5F5F4F4617570730F3E0E0F0E0CF0152
:10041000DF91CF910895CF93DF93EC01FB01E65A72
:10042000FF4F6191719140E050E020E030E017C053
:10043000A081B181A20FB31F235F3F4F12968C9111
:10044000129790E08C179D0741F41B96ED91FC915B
:100450001C970190F081E02D07C04F5F5F4F46175A
:10046000570730F3E0E0F0E0CF01DF91CF9108953E
:10047000CF93DF93EC01FB01E65AFF4F619171913D
:1004800040E050E020E030E017C0A081B181A20F31
:10049000B31F235F3F4F12968C91129790E08C17F9
:1004A0009D0741F41B96ED91FC911C970190F08102
:1004B000E02D07C04F5F5F4F4617570730F3E0E06E
:1004C000F0E0CF01DF91CF910895EF92FF920F936B
:1004D0001F93CF93DF937C018B01A0E0B0E020E07D
:1004E00030E0BA01665A7F4FEA01C45ADF4F0EC0AE
:1004F000E881F981E20FF31F828190E08E159F055C
:1005000011F4128701871196235F3F4FFB01808111
:100510009181A817B90760F3DF91CF911F910F91D7
:10052000FF90EF900895FC01E55BFF4F808190E024
:100530000895EF92FF920F931F93CF93DF937C0167
:100540008B01EA01BA0139D2DC011B96ED91FC91D5
:100550001C9713830283C65BDF4F8881CA54D04047
:10056000882319F0C701BE014DD2DF91CF911F91B1
:100570000F91FF90EF900895CF92DF92EF92FF924C
:100580000F931F93CF93DF936C018B017A018EE55C
:1005900090E081D7EC018DE090E09C01029FC001CA
:1005A000039F900D129F900D112475D7FE01E45A00
:1005B000FF4F80839183C65ADF4F19830883CA5542
:1005C000D04020E030E080E090E0DF010AC0ED9113
:1005D000FC911197E80FF91F148613862F5F3F4F88
:1005E0000D96201731079CF3C65BDF4F18822697C4
:1005F00019821882249684E190E099838883249656
:10060000F982E8822596D982C882C155D040CE01B0
:10061000DF91CF911F910F91FF90EF90DF90CF90DE
:100620000895CF92DF92EF92FF920F931F93CF9393
:10063000DF937B01EA01BA01C0D16C01009709F494
:1006400045C0DC011B960D911C911C97F80180811F
:100650009181009709F0BCD7E114F10429F1D70189
:100660000D900020E9F7CD018E199F0914D7D8010C
:100670008C9311969C9320E030E00CC0D801ED9152
:10068000FC91E20FF31FD701A20FB31F8C9180835F
:100690002F5F3F4FF70101900020E9F7EE19FF09A6
:1006A0002E173F0758F303C0F80111821082D601BC
:1006B00018968C91882351F0C65BDF4F8881CA540D
:1006C000D040882319F0CE01B601F1D3DF91CF914C
:1006D0001F910F91FF90EF90DF90CF9008950F93AF
:1006E0001F93CF93DF938B01EA01BA0166D1DC013E
:1006F0000097A9F01B96ED91FC911C971183008344
:1007000018968C911897882351F0C65BDF4F88812B
:10071000CA54D040882319F0CE01BD01C8D3DF915F
:10072000CF911F910F9108950F931F93CF93DF9354
:100730008B01EA01BA0141D1DC010097A9F01B96B7
:10074000ED91FC911C971183008318968C9118975A
:10075000882351F0C65BDF4F8881CA54D04088237C
:1007600019F0CE01BD01A3D3DF91CF911F910F915D
:1007700008951F93CF93DF93162FEA01BA011DD17D
:10078000DC010097A1F01B96ED91FC911C97108362
:1007900018968C911897882351F0C65BDF4F88819B
:1007A000CA54D040882319F0CE01BD0180D3DF9117
:1007B000CF911F9108958F929F92AF92BF92CF9247
:1007C000DF92EF92FF920F931F93CF93DF935C0121
:1007D000302F8AE590E0E80EF91ED701CD91DC912B
:1007E000E6EAFFEFEE0EFF1E88249924CC24DD24D8
:1007F0008701045A1F4FA8C0D801ED91FC91EC0D60
:10080000FD1DD6011D9683859485892B09F098C01E
:10081000B182A0822683D801ED91FC911197EC0D55
:10082000FD1D748363834283ED91FC911197EC0D60
:10083000FD1D3583ED91FC911197EC0DFD1D178287
:10084000CD91DC91CC0DDD1D1A861986B4E0AB1676
:10085000B10468F4E2E0AE16B10468F5A114B10485
:1008600061F0F1E0AF16B10409F04DC014C024E00E
:10087000A216B10409F047C032C081E090E00BD667
:100880008B879C87D801ED91FC91EC0DFD1D0384B5
:10089000F485E02D37C082E090E0FDD58B879C8702
:1008A000D801ED91FC91EC0DFD1D0384F485E02D44
:1008B0001182108228C084E090E0EDD58B879C8760
:1008C000D801ED91FC91EC0DFD1D0384F485E02D24
:1008D0001182108281E090E09383828314C082E0D1
:1008E00090E0D9D58B879C87D801ED91FC91EC0DD8
:1008F000FD1D0385148581E090E0CDD5FC01D80174
:100900008D939C931082EAE4F0E0EE0EFF1ED70177
:100910008C91E6EBFFEFEE0EFF1E882379F02CE5BD
:1009200030E0E20EF31ED7016D917C91E4EAFFEF17
:10093000EE0EFF1E6C0D7D1DC701B9D294010AC0D9
:100940000894811C911C6D018C169D0608F454CFEF
:100950002FEF3FEFC901DF91CF911F910F91FF90D2
:10096000EF90DF90CF90BF90AF909F908F900895C1
:100970000F931F93F801E05BFF4F808335966193DF
:1009800071934193519320833F978081EA54F040C3
:10099000882311F0CF017ED01F910F910895FB01A4
:1009A000ED5AFF4F9183808339978081EA54F0405C
:1009B000882311F0CF01D2D00895CF93DF93EC01BB
:1009C000FB01E65AFF4F6191719140E050E020E059
:1009D00030E00FC0A081B181A20FB31F235F3F4F52
:1009E00012968C91129790E08C179D0739F04F5F0B
:1009F0005F4F4617570770F3A0E0B0E0CD01DF91DD
:100A0000CF910895BF92CF92DF92EF92FF920F9312
:100A10001F93B82E7B01D1DFDC011B96CD90DC90BB
:100A20001C978701045B1F4FD801ED91FC9186E074
:100A30000995EEE4F0E0EE0EFF1ED801ED91FC9179
:100A4000D7018C910995D801ED91FC91D7011196B0
:100A50008C910995D801ED91FC9189E00995D80117
:100A6000ED91FC918B2D0995D801ED91FC91D6016A
:100A700012968C910995D801ED91FC91D6011396AF
:100A80008C9109951F910F91FF90EF90DF90CF907F
:100A9000BF900895CF92DF92EF92FF920F931F9332
:100AA0007C018C01045B1F4FD801ED91FC9189E022
:100AB00009952EE4C22ED12CCE0CDF1CD801ED916D
:100AC000FC91D6018C910995D801ED91FC91D6014C
:100AD00011968C910995D801ED91FC9183E00995CF
:100AE000F701E05BFF4FD8012D913C918081F90126
:100AF000099595E5C92ED12CCE0CDF1CD801ED91BE
:100B0000FC91D6018C910995D801ED91FC91D6010B
:100B100011968C91099587E5C82ED12CCE0CDF1C3F
:100B2000D801ED91FC91D6018C910995D801ED91F8
:100B3000FC91D60111968C91099589E590E0E80E1B
:100B4000F91ED801ED91FC91D7018C9109951F9167
:100B50000F91FF90EF90DF90CF9008958F929F922A
:100B6000AF92BF92CF92DF92EF92FF920F931F93BB
:100B7000CF93DF938C0143E5A42EB12CA80EB91EB0
:100B8000D501EC911196FC91DF010D900020E9F761
:100B90007D010894E108F108EE1AFF0A3CE4C32E37
:100BA000D12CC80ED91ED601ED91FC918E2D8C5FF3
:100BB0000995025B1F4FD601ED91FC91D8018C91F4
:100BC0000995D601ED91FC91D80111968C9109956A
:100BD000D601ED91FC9182E00995C0E0D0E047019B
:100BE0000894811C911C760185010CC0D801ED91FF
:100BF000FC91EC0FFD1FD7012D913C918081F901F3
:100C000009952196C815D90588F3DF91CF911F91D9
:100C10000F91FF90EF90DF90CF90BF90AF909F909B
:100C20008F9008958F929F92AF92BF92CF92DF9252
:100C3000EF92FF920F931F93CF93DF938C0161E5A7
:100C4000A62EB12CA80EB91ED501EC911196FC91DF
:100C5000DF010D900020E9F77D010894E108F1081B
:100C6000EE1AFF0A5CE4C52ED12CC80ED91ED6019F
:100C7000ED91FC918E2D8C5F0995025B1F4FD60183
:100C8000ED91FC91D8018C910995D601ED91FC91E3
:100C9000D80111968C910995D601ED91FC9181E0D6
:100CA0000995C0E0D0E047010894811C911C7601B1
:100CB00085010CC0D801ED91FC91EC0FFD1FD7010F
:100CC0002D913C918081F90109952196C815D9058E
:100CD00088F3DF91CF911F910F91FF90EF90DF90FC
:100CE000CF90BF90AF909F908F9008959F92AF92BA
:100CF000BF92CF92DF92EF92FF920F931F93CF9309
:100D0000DF93982E5B0190E058DE6C01DC018D9141
:100D10009C918430910540F48230910588F40097CD
:100D200031F0019739F409C0049721F40CC0C6E0F2
:100D3000D0E016C0C0E0D0E013C0C9E0D0E010C0E1
:100D4000C7E0D0E00DC0F601A385B485EC91119603
:100D5000FC91EF0109900020E9F7CE1BDF0B2596EF
:100D6000ECE4EE2EF12CEA0CFB1CD701ED91FC918A
:100D70009E012150822F09958501025B1F4FD701EB
:100D8000ED91FC91D8018C910995D701ED91FC91E1
:100D9000D80111968C910995D701ED91FC9186E0CF
:100DA0000995D701ED91FC91892D0995F601808176
:100DB00091818430910548F482309105B8F500970F
:100DC00041F0019709F067C010C0049709F063C0B3
:100DD00048C0D6011B96ED91FC911C97D7012D912F
:100DE0003C918081F901099556C0D6011B96ED9181
:100DF000FC911C97D7012D913C918081F9010995B7
:100E0000D6011B96ED91FC911C97D7012D913C9139
:100E10008181F9010995D701ED91FC9180E0099557
:100E2000D701ED91FC9180E0099535C0D6011B9664
:100E3000ED91FC911C97D7012D913C918081F90196
:100E40000995D6011B96ED91FC911C97D7012D9128
:100E50003C918181F9010995892D90E0B501D2DDA0
:100E60001AC0F601A384B48400E010E07BEFC72E23
:100E70007FEFD72ECC0EDD1EE7010AC0F501E00F93
:100E8000F11F288139818081F90109950F5F1F4F7A
:100E90000C151D0598F3DF91CF911F910F91FF90D5
:100EA000EF90DF90CF90BF90AF909F9008958F927A
:100EB0009F92AF92BF92CF92DF92EF92FF920F93E9
:100EC0001F93CF93DF934C015B01DB011396EC91F1
:100ED00013971496FC91DF010D900020E9F76D0146
:100EE0000894C108D108CE1ADF0A8C01045B1F4F99
:100EF000D801ED91FC918C2D885F0995FEE4EF2ED1
:100F0000F12CE80CF91CD801ED91FC91D7018C91E2
:100F10000995D801ED91FC91D70111968C91099515
:100F2000D801ED91FC9184E00995D801ED91FC91F7
:100F3000D5018C910995D801ED91FC91D5011696BA
:100F40008C910995D801ED91FC91D50115968C9164
:100F50000995D801ED91FC91D50112968C910995D6
:100F6000C0E0D0E00894C11CD11C0EC0D50113967E
:100F7000ED91FC911497EC0FFD1FD8012D913C9140
:100F80008081F90109952196CC15DD0578F3F501ED
:100F90008281B401ABDEDF91CF911F910F91FF9061
:100FA000EF90DF90CF90BF90AF909F908F9008957B
:100FB000AF92BF92CF92DF92EF92FF920F931F9367
:100FC000CF93DF93EC01CADDCE0164DDEE24FF2474
:100FD00000E010E08AE5A82EB12CAC0EBD1EBCE5E9
:100FE000CB2ED12CCC0EDD1E11C0D601ED91FC9183
:100FF000E00FF11F83859485892B19F0CE01BF0185
:1010000056DF0894E11CF11C035F1F4FF50180813E
:101010009181E816F90648F38E01045B1F4FD80151
:10102000ED91FC9184E00995AEE4EA2EF12CEC0EF2
:10103000FD1ED801ED91FC91D7018C910995D80145
:10104000ED91FC91D70111968C910995D801ED9104
:10105000FC918AE00995D801ED91FC9180E4099515
:10106000DF91CF911F910F91FF90EF90DF90CF9084
:10107000BF90AF900895CF92DF92EF92FF920F93BF
:101080001F93CF93DF93EB0190E097DC8C0135E069
:10109000C32ED12CCC0EDD1EDC018D919C918430B1
:1010A000910548F48230910590F4009741F0019742
:1010B00009F04DC00CC0049709F049C01EC0D8010A
:1010C0001B96ED91FC911C978D81808340C0D801C7
:1010D0001B96ED91FC911C97D60111968C91992746
:1010E00087FD9095982F88272D81332727FD3095F0
:1010F000822B932B918380832AC0F801E384F484AC
:10110000D7018D919C91009709F062D2D6010D9084
:101110000020E9F7CD018C199D09BDD1F70180832D
:10112000918320E030E009C0D701ED91FC91E20FFE
:10113000F31F8C8180832F5F3F4FF60101900020C9
:10114000E9F72196EC19FD092E173F0768F381E0B6
:10115000F80187830184F285E02D309711F0C801F2
:101160000995DF91CF911F910F91FF90EF90DF9044
:10117000CF900895CF93DF93EC01C85BDF4F888158
:101180009981C854D04087309105A9F088309105E5
:1011900038F48130910561F1059709F067C007C007
:1011A0008830910561F04C9709F060C021C08C81B6
:1011B000BE019CDD5BC08C81BE015DDF57C08C81B0
:1011C000992787FD90952DE030E0AC01429FC0014A
:1011D000439F900D529F900D1124C45ADF4FE88118
:1011E000F981CC55D040E80FF91F8D8180873EC032
:1011F0008B818823C9F48A818823B1F4898188236B
:1012000099F4C65BDF4F81E08883CA54D040CE0199
:1012100009DDC85BDF4F88E190E0998388832497DC
:1012200019821882C454D0408B818130F9F4FE01B8
:10123000EF5AFF4FBE016C5F7F4F8081918160D27A
:101240000097A1F42A81332727FD3095322F2227DA
:101250008981992787FD9095282B392BC25BDF4F19
:1012600039832883CE54D040CE01A2DEDF91CF91C6
:101270000895EF92FF920F931F93CF93DF93B82FB0
:10128000EB0164E4E62EF12CEC0EFD1EF7018081EB
:101290009181FE01E80FF91FB0830196F701918358
:1012A0008083BE01605C7F4F9E012F5B3F4FF90141
:1012B0008081FB018083AE014E5B5F4FFA0180812C
:1012C000F90180838E010D5B1F4FF8018081FA01C7
:1012D0008083F801B083FB018081833009F5F90137
:1012E00080818823E9F4FA0180818823C9F4BB2333
:1012F000B9F48E01085B1F4F81E090E0F801918303
:101300008083CE0137DF88E190E0F801918380830C
:10131000F70111821082C55BDF4F81E08883B4C082
:10132000C55BDF4F18822397E881F981C854D0400C
:10133000ED31F10508F0A8C0ED5EFF4F0994B33020
:1013400071F5CC5BDF4F19821882249685E190E01D
:1013500099838883C854D04022C08E01085B1F4FF8
:10136000BB2311F586E190E05DC08E01085B1F4F45
:10137000BB23D1F487E190E055C08E01085B1F4F7D
:10138000BB2391F4C65BDF4F81E08883CA54D04011
:10139000CE0148DC88E190E0F80191838083CC5B4A
:1013A000DF4F1982188270C084E190E03BC0CA5BB5
:1013B000DF4F8B2F992787FD909589939993FE0195
:1013C00089E190E030C0C85BDF4F8AE190E099830B
:1013D00088835AC08A81992787FD9095982F8827FE
:1013E0002981332727FD3095822B932BC25BDF4F5A
:1013F000288139818E01065010408217930719F415
:101400008BE190E00FC08CE190E00CC08E01085B96
:101410001F4FB7FD05C08B2F992787FD909502C000
:101420008AE090E0F801918380832EC0FE01EC5B9E
:10143000FF4F808191818034910559F4118210828F
:10144000FE01EA5BFF4F808191818054904091833F
:1014500080838E010C5B1F4FCA5BDF4F88819981AF
:10146000C654D0400196F8012081318128173907F0
:1014700059F4CE017FDEC85BDF4F88E190E09983AD
:101480008883F80111821082DF91CF911F910F9113
:10149000FF90EF9008950F931F93CF93DF93BC01BC
:1014A0008230910510F462E070E0E0912D01F0913E
:1014B0002E01A0E0B0E040E050E024C080819181A6
:1014C00086179707D0F08617970771F4828193816A
:1014D000109729F013969C938E9312972CC090939B
:1014E0002E0180932D0127C04115510519F0841755
:1014F000950718F4EF018D01AC01DF018281938122
:101500009C01F9013097D1F641155105F9F0CA0156
:10151000861B970B8430910580F48A819B8101158D
:10152000110521F0F8019383828304C090932E016A
:1015300080932D01FE01329645C0FE01E80FF91F90
:10154000619371930297998388833CC080912B01AA
:1015500090912C01892B41F48091A3009091A400DB
:1015600090932C0180932B014091A5005091A600EF
:101570004115510541F44DB75EB78091A10090919E
:10158000A200481B590B20912B0130912C012417EC
:101590003507B0F4CA01821B930B8617970780F0BA
:1015A000AB014E5F5F4F8417950750F0420F531FFA
:1015B00050932C0140932B01F9016193719302C068
:1015C000E0E0F0E0CF01DF91CF911F910F910895FE
:1015D000CF93DF939C01009709F48FC0EC01229711
:1015E0001B821A8260912D0170912E016115710587
:1015F00081F488819981820F931F20912B01309172
:101600002C012817390739F5D0932C01C0932B01F1
:1016100074C0DB0140E050E0AC17BD0708F1BB83AC
:10162000AA83FE0121913191E20FF31FAE17BF078C
:1016300079F48D919C911197280F391F2E5F3F4FA0
:101640003983288312968D919C9113979B838A836B
:101650004115510571F4D0932E01C0932D014DC059
:1016600012968D919C911397AD01009711F0DC01BA
:10167000D3CFDA011396DC93CE931297FA0121911E
:101680003191E20FF31FCE17DF0769F4888199814A
:10169000280F391F2E5F3F4FFA01318320838A8143
:1016A0009B8193838283E0E0F0E0DB0112968D91D1
:1016B0009C911397009719F0BC01FD01F6CFAB0187
:1016C0004E5F5F4FDB018D919C91840F951F2091A0
:1016D0002B0130912C012817390779F4309729F420
:1016E00010922E0110922D0102C0138212824250DC
:1016F000504050932C0140932B01DF91CF910895DE
:10170000FB01DC018D91019080190110D9F3990B37
:061710000895F894FFCFDC
:10171600416E6E6F795F4C696768740053746169D6
:10172600725F4C6967687400416E6E6F79696E67A7
:10173600204C6967687400537461697273204C6940
:10174600676874004C6967687420537461747573B4
:081756000020002F010000003B
:00000001FF
